{
  "contractName": "EVCoin",
  "abi": [
    {
      "constant": true,
      "inputs": [],
      "name": "name",
      "outputs": [
        {
          "name": "",
          "type": "string"
        }
      ],
      "payable": false,
      "stateMutability": "view",
      "type": "function"
    },
    {
      "constant": false,
      "inputs": [
        {
          "name": "_spender",
          "type": "address"
        },
        {
          "name": "_value",
          "type": "uint256"
        }
      ],
      "name": "approve",
      "outputs": [
        {
          "name": "success",
          "type": "bool"
        }
      ],
      "payable": false,
      "stateMutability": "nonpayable",
      "type": "function"
    },
    {
      "constant": true,
      "inputs": [],
      "name": "totalSupply",
      "outputs": [
        {
          "name": "",
          "type": "uint256"
        }
      ],
      "payable": false,
      "stateMutability": "view",
      "type": "function"
    },
    {
      "constant": false,
      "inputs": [
        {
          "name": "_from",
          "type": "address"
        },
        {
          "name": "_to",
          "type": "address"
        },
        {
          "name": "_value",
          "type": "uint256"
        }
      ],
      "name": "transferFrom",
      "outputs": [
        {
          "name": "success",
          "type": "bool"
        }
      ],
      "payable": false,
      "stateMutability": "nonpayable",
      "type": "function"
    },
    {
      "constant": true,
      "inputs": [],
      "name": "decimals",
      "outputs": [
        {
          "name": "",
          "type": "uint8"
        }
      ],
      "payable": false,
      "stateMutability": "view",
      "type": "function"
    },
    {
      "constant": true,
      "inputs": [
        {
          "name": "_owner",
          "type": "address"
        }
      ],
      "name": "balanceOf",
      "outputs": [
        {
          "name": "",
          "type": "uint256"
        }
      ],
      "payable": false,
      "stateMutability": "view",
      "type": "function"
    },
    {
      "constant": false,
      "inputs": [],
      "name": "acceptOwnership",
      "outputs": [],
      "payable": false,
      "stateMutability": "nonpayable",
      "type": "function"
    },
    {
      "constant": true,
      "inputs": [],
      "name": "owner",
      "outputs": [
        {
          "name": "",
          "type": "address"
        }
      ],
      "payable": false,
      "stateMutability": "view",
      "type": "function"
    },
    {
      "constant": true,
      "inputs": [],
      "name": "symbol",
      "outputs": [
        {
          "name": "",
          "type": "string"
        }
      ],
      "payable": false,
      "stateMutability": "view",
      "type": "function"
    },
    {
      "constant": false,
      "inputs": [
        {
          "name": "_to",
          "type": "address"
        },
        {
          "name": "_value",
          "type": "uint256"
        }
      ],
      "name": "transfer",
      "outputs": [
        {
          "name": "",
          "type": "bool"
        }
      ],
      "payable": false,
      "stateMutability": "nonpayable",
      "type": "function"
    },
    {
      "constant": false,
      "inputs": [
        {
          "name": "_spender",
          "type": "address"
        },
        {
          "name": "_tokens",
          "type": "uint256"
        },
        {
          "name": "_data",
          "type": "bytes"
        }
      ],
      "name": "approveAndCall",
      "outputs": [
        {
          "name": "success",
          "type": "bool"
        }
      ],
      "payable": false,
      "stateMutability": "nonpayable",
      "type": "function"
    },
    {
      "constant": true,
      "inputs": [],
      "name": "newOwner",
      "outputs": [
        {
          "name": "",
          "type": "address"
        }
      ],
      "payable": false,
      "stateMutability": "view",
      "type": "function"
    },
    {
      "constant": false,
      "inputs": [
        {
          "name": "_tokenAddress",
          "type": "address"
        },
        {
          "name": "_tokens",
          "type": "uint256"
        }
      ],
      "name": "transferAnyERC20Token",
      "outputs": [
        {
          "name": "success",
          "type": "bool"
        }
      ],
      "payable": false,
      "stateMutability": "nonpayable",
      "type": "function"
    },
    {
      "constant": true,
      "inputs": [
        {
          "name": "_owner",
          "type": "address"
        },
        {
          "name": "_spender",
          "type": "address"
        }
      ],
      "name": "allowance",
      "outputs": [
        {
          "name": "remaining",
          "type": "uint256"
        }
      ],
      "payable": false,
      "stateMutability": "view",
      "type": "function"
    },
    {
      "constant": false,
      "inputs": [
        {
          "name": "_newOwner",
          "type": "address"
        }
      ],
      "name": "transferOwnership",
      "outputs": [],
      "payable": false,
      "stateMutability": "nonpayable",
      "type": "function"
    },
    {
      "inputs": [],
      "payable": false,
      "stateMutability": "nonpayable",
      "type": "constructor"
    },
    {
      "payable": true,
      "stateMutability": "payable",
      "type": "fallback"
    },
    {
      "anonymous": false,
      "inputs": [
        {
          "indexed": true,
          "name": "_buyer",
          "type": "address"
        },
        {
          "indexed": false,
          "name": "_energy",
          "type": "uint256"
        },
        {
          "indexed": false,
          "name": "_price",
          "type": "uint256"
        }
      ],
      "name": "RequestApproval",
      "type": "event"
    },
    {
      "anonymous": false,
      "inputs": [
        {
          "indexed": true,
          "name": "_seller",
          "type": "address"
        },
        {
          "indexed": false,
          "name": "_energy",
          "type": "uint256"
        },
        {
          "indexed": false,
          "name": "_price",
          "type": "uint256"
        }
      ],
      "name": "OfferApproval",
      "type": "event"
    },
    {
      "anonymous": false,
      "inputs": [
        {
          "indexed": true,
          "name": "_from",
          "type": "address"
        },
        {
          "indexed": true,
          "name": "_to",
          "type": "address"
        },
        {
          "indexed": false,
          "name": "_value",
          "type": "uint256"
        }
      ],
      "name": "Transfer",
      "type": "event"
    },
    {
      "anonymous": false,
      "inputs": [
        {
          "indexed": true,
          "name": "_owner",
          "type": "address"
        },
        {
          "indexed": true,
          "name": "_spender",
          "type": "address"
        },
        {
          "indexed": false,
          "name": "_value",
          "type": "uint256"
        }
      ],
      "name": "Approval",
      "type": "event"
    },
    {
      "anonymous": false,
      "inputs": [
        {
          "indexed": true,
          "name": "_from",
          "type": "address"
        },
        {
          "indexed": true,
          "name": "_to",
          "type": "address"
        }
      ],
      "name": "OwnershipTransferred",
      "type": "event"
    },
    {
      "constant": false,
      "inputs": [
        {
          "name": "_price",
          "type": "uint256"
        },
        {
          "name": "_energy",
          "type": "uint256"
        }
      ],
      "name": "buyerRequest",
      "outputs": [],
      "payable": false,
      "stateMutability": "nonpayable",
      "type": "function"
    },
    {
      "constant": false,
      "inputs": [
        {
          "name": "_price",
          "type": "uint256"
        },
        {
          "name": "_energy",
          "type": "uint256"
        }
      ],
      "name": "sellerOffer",
      "outputs": [],
      "payable": false,
      "stateMutability": "nonpayable",
      "type": "function"
    }
  ],
  "bytecode": "0x60806040523480156200001157600080fd5b50336000806101000a81548173ffffffffffffffffffffffffffffffffffffffff021916908373ffffffffffffffffffffffffffffffffffffffff1602179055506040805190810160405280600681526020017f4556436f696e0000000000000000000000000000000000000000000000000000815250600590805190602001906200009f9291906200016b565b506040805190810160405280600381526020017f455643000000000000000000000000000000000000000000000000000000000081525060049080519060200190620000ed9291906200016b565b506012600660006101000a81548160ff021916908360ff160217905550670de0b6b3a7640000600781905550670de0b6b3a7640000600360003373ffffffffffffffffffffffffffffffffffffffff1673ffffffffffffffffffffffffffffffffffffffff168152602001908152602001600020819055506200021a565b828054600181600116156101000203166002900490600052602060002090601f016020900481019282601f10620001ae57805160ff1916838001178555620001df565b82800160010185558215620001df579182015b82811115620001de578251825591602001919060010190620001c1565b5b509050620001ee9190620001f2565b5090565b6200021791905b8082111562000213576000816000905550600101620001f9565b5090565b90565b611756806200022a6000396000f3006080604052600436106100f1576000357c0100000000000000000000000000000000000000000000000000000000900463ffffffff16806306fdde03146100f6578063095ea7b31461018657806318160ddd146101eb57806323b872dd146102165780632e49a1091461029b578063313ce567146102d257806365acb4a41461030357806370a082311461033a57806379ba5097146103915780638da5cb5b146103a857806395d89b41146103ff578063a9059cbb1461048f578063cae9ca51146104f4578063d4ee1d901461059f578063dc39d06d146105f6578063dd62ed3e1461065b578063f2fde38b146106d2575b600080fd5b34801561010257600080fd5b5061010b610715565b6040518080602001828103825283818151815260200191508051906020019080838360005b8381101561014b578082015181840152602081019050610130565b50505050905090810190601f1680156101785780820380516001836020036101000a031916815260200191505b509250505060405180910390f35b34801561019257600080fd5b506101d1600480360381019080803573ffffffffffffffffffffffffffffffffffffffff169060200190929190803590602001909291905050506107b3565b604051808215151515815260200191505060405180910390f35b3480156101f757600080fd5b506102006108a5565b6040518082815260200191505060405180910390f35b34801561022257600080fd5b50610281600480360381019080803573ffffffffffffffffffffffffffffffffffffffff169060200190929190803573ffffffffffffffffffffffffffffffffffffffff169060200190929190803590602001909291905050506108af565b604051808215151515815260200191505060405180910390f35b3480156102a757600080fd5b506102d06004803603810190808035906020019092919080359060200190929190505050610b2b565b005b3480156102de57600080fd5b506102e7610cbc565b604051808260ff1660ff16815260200191505060405180910390f35b34801561030f57600080fd5b506103386004803603810190808035906020019092919080359060200190929190505050610ccf565b005b34801561034657600080fd5b5061037b600480360381019080803573ffffffffffffffffffffffffffffffffffffffff169060200190929190505050610e17565b6040518082815260200191505060405180910390f35b34801561039d57600080fd5b506103a6610e60565b005b3480156103b457600080fd5b506103bd610fff565b604051808273ffffffffffffffffffffffffffffffffffffffff1673ffffffffffffffffffffffffffffffffffffffff16815260200191505060405180910390f35b34801561040b57600080fd5b50610414611024565b6040518080602001828103825283818151815260200191508051906020019080838360005b83811015610454578082015181840152602081019050610439565b50505050905090810190601f1680156104815780820380516001836020036101000a031916815260200191505b509250505060405180910390f35b34801561049b57600080fd5b506104da600480360381019080803573ffffffffffffffffffffffffffffffffffffffff169060200190929190803590602001909291905050506110c2565b604051808215151515815260200191505060405180910390f35b34801561050057600080fd5b50610585600480360381019080803573ffffffffffffffffffffffffffffffffffffffff16906020019092919080359060200190929190803590602001908201803590602001908080601f016020809104026020016040519081016040528093929190818152602001838380828437820191505050505050919291929050505061122b565b604051808215151515815260200191505060405180910390f35b3480156105ab57600080fd5b506105b461147a565b604051808273ffffffffffffffffffffffffffffffffffffffff1673ffffffffffffffffffffffffffffffffffffffff16815260200191505060405180910390f35b34801561060257600080fd5b50610641600480360381019080803573ffffffffffffffffffffffffffffffffffffffff169060200190929190803590602001909291905050506114a0565b604051808215151515815260200191505060405180910390f35b34801561066757600080fd5b506106bc600480360381019080803573ffffffffffffffffffffffffffffffffffffffff169060200190929190803573ffffffffffffffffffffffffffffffffffffffff169060200190929190505050611604565b6040518082815260200191505060405180910390f35b3480156106de57600080fd5b50610713600480360381019080803573ffffffffffffffffffffffffffffffffffffffff16906020019092919050505061168b565b005b60058054600181600116156101000203166002900480601f0160208091040260200160405190810160405280929190818152602001828054600181600116156101000203166002900480156107ab5780601f10610780576101008083540402835291602001916107ab565b820191906000526020600020905b81548152906001019060200180831161078e57829003601f168201915b505050505081565b600081600260003373ffffffffffffffffffffffffffffffffffffffff1673ffffffffffffffffffffffffffffffffffffffff16815260200190815260200160002060008573ffffffffffffffffffffffffffffffffffffffff1673ffffffffffffffffffffffffffffffffffffffff168152602001908152602001600020819055508273ffffffffffffffffffffffffffffffffffffffff163373ffffffffffffffffffffffffffffffffffffffff167f8c5be1e5ebec7d5bd14f71427d1e84f3dd0314c0f7b2291e5b200ac8c7c3b925846040518082815260200191505060405180910390a36001905092915050565b6000600754905090565b600081600360008673ffffffffffffffffffffffffffffffffffffffff1673ffffffffffffffffffffffffffffffffffffffff16815260200190815260200160002054101580156109005750600082115b8015610988575081600260008673ffffffffffffffffffffffffffffffffffffffff1673ffffffffffffffffffffffffffffffffffffffff16815260200190815260200160002060003373ffffffffffffffffffffffffffffffffffffffff1673ffffffffffffffffffffffffffffffffffffffff1681526020019081526020016000205410155b15610b1f5781600360008673ffffffffffffffffffffffffffffffffffffffff1673ffffffffffffffffffffffffffffffffffffffff1681526020019081526020016000206000828254039250508190555081600360008573ffffffffffffffffffffffffffffffffffffffff1673ffffffffffffffffffffffffffffffffffffffff1681526020019081526020016000206000828254019250508190555081600260008673ffffffffffffffffffffffffffffffffffffffff1673ffffffffffffffffffffffffffffffffffffffff16815260200190815260200160002060003373ffffffffffffffffffffffffffffffffffffffff1673ffffffffffffffffffffffffffffffffffffffff168152602001908152602001600020600082825403925050819055508273ffffffffffffffffffffffffffffffffffffffff168473ffffffffffffffffffffffffffffffffffffffff167fddf252ad1be2c89b69c2b068fc378daa952ba7f163c4a11628f55a4df523b3ef846040518082815260200191505060405180910390a360019050610b24565b600090505b9392505050565b81600360003373ffffffffffffffffffffffffffffffffffffffff1673ffffffffffffffffffffffffffffffffffffffff16815260200190815260200160002054101515610cb85780600960003373ffffffffffffffffffffffffffffffffffffffff1673ffffffffffffffffffffffffffffffffffffffff1681526020019081526020016000208190555081600a60003373ffffffffffffffffffffffffffffffffffffffff1673ffffffffffffffffffffffffffffffffffffffff16815260200190815260200160002081905550600d3390806001815401808255809150509060018203906000526020600020016000909192909190916101000a81548173ffffffffffffffffffffffffffffffffffffffff021916908373ffffffffffffffffffffffffffffffffffffffff160217905550503373ffffffffffffffffffffffffffffffffffffffff167f32337badd1c3fb1a912d0cb40a04627c8547cbe1c7774498cdfb62f07c26a00e8284604051808381526020018281526020019250505060405180910390a25b5050565b600660009054906101000a900460ff1681565b80600b60003373ffffffffffffffffffffffffffffffffffffffff1673ffffffffffffffffffffffffffffffffffffffff1681526020019081526020016000208190555081600c60003373ffffffffffffffffffffffffffffffffffffffff1673ffffffffffffffffffffffffffffffffffffffff16815260200190815260200160002081905550600e3390806001815401808255809150509060018203906000526020600020016000909192909190916101000a81548173ffffffffffffffffffffffffffffffffffffffff021916908373ffffffffffffffffffffffffffffffffffffffff160217905550503373ffffffffffffffffffffffffffffffffffffffff167fc21f9e2353358e388798256a891982ec4dd5451c57ac0cee92c7396dfdafa6218284604051808381526020018281526020019250505060405180910390a25050565b6000600360008373ffffffffffffffffffffffffffffffffffffffff1673ffffffffffffffffffffffffffffffffffffffff168152602001908152602001600020549050919050565b600160009054906101000a900473ffffffffffffffffffffffffffffffffffffffff1673ffffffffffffffffffffffffffffffffffffffff163373ffffffffffffffffffffffffffffffffffffffff16141515610ebc57600080fd5b600160009054906101000a900473ffffffffffffffffffffffffffffffffffffffff1673ffffffffffffffffffffffffffffffffffffffff166000809054906101000a900473ffffffffffffffffffffffffffffffffffffffff1673ffffffffffffffffffffffffffffffffffffffff167f8be0079c531659141344cd1fd0a4f28419497f9722a3daafe3b4186f6b6457e060405160405180910390a3600160009054906101000a900473ffffffffffffffffffffffffffffffffffffffff166000806101000a81548173ffffffffffffffffffffffffffffffffffffffff021916908373ffffffffffffffffffffffffffffffffffffffff1602179055506000600160006101000a81548173ffffffffffffffffffffffffffffffffffffffff021916908373ffffffffffffffffffffffffffffffffffffffff160217905550565b6000809054906101000a900473ffffffffffffffffffffffffffffffffffffffff1681565b60048054600181600116156101000203166002900480601f0160208091040260200160405190810160405280929190818152602001828054600181600116156101000203166002900480156110ba5780601f1061108f576101008083540402835291602001916110ba565b820191906000526020600020905b81548152906001019060200180831161109d57829003601f168201915b505050505081565b600081600360003373ffffffffffffffffffffffffffffffffffffffff1673ffffffffffffffffffffffffffffffffffffffff16815260200190815260200160002054101580156111135750600082115b156112205781600360003373ffffffffffffffffffffffffffffffffffffffff1673ffffffffffffffffffffffffffffffffffffffff1681526020019081526020016000206000828254039250508190555081600360008573ffffffffffffffffffffffffffffffffffffffff1673ffffffffffffffffffffffffffffffffffffffff168152602001908152602001600020600082825401925050819055508273ffffffffffffffffffffffffffffffffffffffff163373ffffffffffffffffffffffffffffffffffffffff167fddf252ad1be2c89b69c2b068fc378daa952ba7f163c4a11628f55a4df523b3ef846040518082815260200191505060405180910390a360019050611225565b600090505b92915050565b600082600260003373ffffffffffffffffffffffffffffffffffffffff1673ffffffffffffffffffffffffffffffffffffffff16815260200190815260200160002060008673ffffffffffffffffffffffffffffffffffffffff1673ffffffffffffffffffffffffffffffffffffffff168152602001908152602001600020819055508373ffffffffffffffffffffffffffffffffffffffff163373ffffffffffffffffffffffffffffffffffffffff167f8c5be1e5ebec7d5bd14f71427d1e84f3dd0314c0f7b2291e5b200ac8c7c3b925856040518082815260200191505060405180910390a38373ffffffffffffffffffffffffffffffffffffffff16638f4ffcb1338530866040518563ffffffff167c0100000000000000000000000000000000000000000000000000000000028152600401808573ffffffffffffffffffffffffffffffffffffffff1673ffffffffffffffffffffffffffffffffffffffff1681526020018481526020018373ffffffffffffffffffffffffffffffffffffffff1673ffffffffffffffffffffffffffffffffffffffff16815260200180602001828103825283818151815260200191508051906020019080838360005b838110156114085780820151818401526020810190506113ed565b50505050905090810190601f1680156114355780820380516001836020036101000a031916815260200191505b5095505050505050600060405180830381600087803b15801561145757600080fd5b505af115801561146b573d6000803e3d6000fd5b50505050600190509392505050565b600160009054906101000a900473ffffffffffffffffffffffffffffffffffffffff1681565b60008060009054906101000a900473ffffffffffffffffffffffffffffffffffffffff1673ffffffffffffffffffffffffffffffffffffffff163373ffffffffffffffffffffffffffffffffffffffff161415156114fd57600080fd5b8273ffffffffffffffffffffffffffffffffffffffff1663a9059cbb6000809054906101000a900473ffffffffffffffffffffffffffffffffffffffff16846040518363ffffffff167c0100000000000000000000000000000000000000000000000000000000028152600401808373ffffffffffffffffffffffffffffffffffffffff1673ffffffffffffffffffffffffffffffffffffffff16815260200182815260200192505050602060405180830381600087803b1580156115c157600080fd5b505af11580156115d5573d6000803e3d6000fd5b505050506040513d60208110156115eb57600080fd5b8101908080519060200190929190505050905092915050565b6000600260008473ffffffffffffffffffffffffffffffffffffffff1673ffffffffffffffffffffffffffffffffffffffff16815260200190815260200160002060008373ffffffffffffffffffffffffffffffffffffffff1673ffffffffffffffffffffffffffffffffffffffff16815260200190815260200160002054905092915050565b6000809054906101000a900473ffffffffffffffffffffffffffffffffffffffff1673ffffffffffffffffffffffffffffffffffffffff163373ffffffffffffffffffffffffffffffffffffffff161415156116e657600080fd5b80600160006101000a81548173ffffffffffffffffffffffffffffffffffffffff021916908373ffffffffffffffffffffffffffffffffffffffff160217905550505600a165627a7a723058206e69a1dc782e0cdd83b337d8d8a8d54b69117618183fd584252898283454f5d10029",
  "source": "pragma solidity ^0.4.22;\n\ncontract Owned {\n    address public owner;\n    address public newOwner;\n\n    event OwnershipTransferred(address indexed _from, address indexed _to);\n\n    constructor() public {\n        owner = msg.sender;\n    }\n\n    modifier onlyOwner {\n        require(msg.sender == owner);\n        _;\n    }\n\n    function transferOwnership(address _newOwner) public onlyOwner {\n        newOwner = _newOwner;\n    }\n    function acceptOwnership() public {\n        require(msg.sender == newOwner);\n        emit OwnershipTransferred(owner, newOwner);\n        owner = newOwner;\n        newOwner = address(0);\n    }\n}\n\ncontract ApproveAndCallFallBack {\n    function receiveApproval(address from, uint256 tokens, address token, bytes data) public;\n}\n\ncontract StandardCoin is Owned{\n    mapping (address => mapping (address => uint256)) allowed;\n    mapping(address => uint256) StandardCoinBalance;\n    string public symbol;\n    string public  name;\n    uint8 public decimals;\n    uint256 public totalSupply;\n\n    event Transfer(address indexed _from, address indexed _to, uint256 _value);\n    event Approval(address indexed _owner, address indexed _spender, uint256 _value);\n\n    function totalSupply() public constant returns (uint256) {\n        return totalSupply;\n    }\n\n    function balanceOf(address _owner) public constant returns (uint256) {\n        return StandardCoinBalance[_owner];\n    }\n\n    function transfer(address _to, uint256 _value) public returns (bool) {\n        if(StandardCoinBalance[msg.sender] >= _value && _value > 0) {\n            StandardCoinBalance[msg.sender] -= _value;\n            StandardCoinBalance[_to] += _value;\n            emit Transfer(msg.sender, _to, _value);            \n            return true;\n        }\n        return false;\n    }\n\n    // the one who receives coins calls it\n    function transferFrom(address _from, address _to, uint256 _value) public returns (bool success) {\n        if(StandardCoinBalance[_from] >= _value && _value > 0 && allowed[_from][msg.sender] >= _value) {\n            StandardCoinBalance[_from] -= _value;\n            StandardCoinBalance[_to] += _value;\n            allowed[_from][msg.sender] -= _value;\n            emit Transfer(_from, _to, _value);            \n            return true;\n        }\n        return false;\n    }\n\n    // the one who gives away coins calls it\n    function approve(address _spender, uint256 _value) public returns (bool success) {\n        allowed[msg.sender][_spender] = _value;\n        emit Approval(msg.sender, _spender, _value);\n        return true;\n    }\n\n    function allowance(address _owner, address _spender) public constant returns (uint256 remaining) {\n        return allowed[_owner][_spender];\n    }\n\n    function approveAndCall(address _spender, uint _tokens, bytes _data) public returns (bool success) {\n        allowed[msg.sender][_spender] = _tokens;\n        emit Approval(msg.sender, _spender, _tokens);\n        ApproveAndCallFallBack(_spender).receiveApproval(msg.sender, _tokens, this, _data);\n        return true;\n    }\n\n    function () public payable {\n        revert();\n    }\n\n    function transferAnyERC20Token(address _tokenAddress, uint _tokens) public onlyOwner returns (bool success) {\n        return StandardCoin(_tokenAddress).transfer(owner, _tokens);\n    }\n}\n\ncontract EVCoin is StandardCoin {\n    mapping(address => address) optimalBuyerToSeller;\n    mapping(address => uint256) biddedEnergyBuyer;\n    mapping(address => uint256) biddedPriceBuyer; \n    mapping(address => uint256) biddedEnergySeller;\n    mapping(address => uint256) biddedPriceSeller;\n    address[] buyersList;\n    address[] sellersList;\n    event RequestApproval(address indexed _buyer, uint256 _energy, uint256 _price);\n    event OfferApproval(address indexed _seller, uint256 _energy, uint256 _price);\n    \n\n    function buyerRequest(uint256 _price, uint256 _energy) public {\n        if(StandardCoinBalance[msg.sender] >= _price) {\n            biddedEnergyBuyer[msg.sender] = _energy;\n            biddedPriceBuyer[msg.sender] = _price;\n            buyersList.push(msg.sender);\n            emit RequestApproval(msg.sender, _energy, _price);\n        }\n    }\n\n    function sellerOffer(uint256 _price, uint256 _energy) public {\n        biddedEnergySeller[msg.sender] = _energy;\n        biddedPriceSeller[msg.sender] = _price;\n        sellersList.push(msg.sender);\n        emit OfferApproval(msg.sender, _energy, _price);\n    }\n\n    constructor() public {\n        name = \"EVCoin\";\n        symbol = \"EVC\";\n        decimals = 18;\n        totalSupply = 1e18;\n        StandardCoinBalance[msg.sender] = 1e18;\n    }\n\n\n}",
  "sourcePath": "/Users/dibyadarshidash/Desktop/research/contracts/EVCoin.sol",
  "compiler": {
    "name": "solc",
    "version": "0.4.24+commit.e67f0147.Emscripten.clang"
  },
  "schemaVersion": "2.0.1",
  "updatedAt": "2018-07-14T08:05:18.680Z"
}